{
  "contractName": "AirdropCentral",
  "abi": [
    {
      "constant": true,
      "inputs": [],
      "name": "userSignupCount",
      "outputs": [
        {
          "name": "",
          "type": "uint256"
        }
      ],
      "payable": false,
      "stateMutability": "view",
      "type": "function"
    },
    {
      "constant": false,
      "inputs": [
        {
          "name": "_isPaused",
          "type": "bool"
        }
      ],
      "name": "setPaused",
      "outputs": [],
      "payable": false,
      "stateMutability": "nonpayable",
      "type": "function"
    },
    {
      "constant": true,
      "inputs": [
        {
          "name": "",
          "type": "address"
        }
      ],
      "name": "signups",
      "outputs": [
        {
          "name": "userAddress",
          "type": "address"
        },
        {
          "name": "signupDate",
          "type": "uint256"
        }
      ],
      "payable": false,
      "stateMutability": "view",
      "type": "function"
    },
    {
      "constant": false,
      "inputs": [
        {
          "name": "_tokenAddress",
          "type": "address"
        }
      ],
      "name": "returnTokensToAirdropper",
      "outputs": [],
      "payable": false,
      "stateMutability": "nonpayable",
      "type": "function"
    },
    {
      "constant": true,
      "inputs": [],
      "name": "getAddress",
      "outputs": [
        {
          "name": "",
          "type": "address"
        }
      ],
      "payable": false,
      "stateMutability": "view",
      "type": "function"
    },
    {
      "constant": false,
      "inputs": [
        {
          "name": "_tokenAddress",
          "type": "address"
        }
      ],
      "name": "withdrawTokens",
      "outputs": [],
      "payable": false,
      "stateMutability": "nonpayable",
      "type": "function"
    },
    {
      "constant": false,
      "inputs": [
        {
          "name": "_admin",
          "type": "address"
        },
        {
          "name": "isAdmin",
          "type": "bool"
        }
      ],
      "name": "setAdmin",
      "outputs": [],
      "payable": false,
      "stateMutability": "nonpayable",
      "type": "function"
    },
    {
      "constant": false,
      "inputs": [
        {
          "name": "_tokenAddress",
          "type": "address"
        },
        {
          "name": "_totalTokensToDistribute",
          "type": "uint256"
        },
        {
          "name": "_expirationTime",
          "type": "uint256"
        }
      ],
      "name": "airdropTokens",
      "outputs": [],
      "payable": false,
      "stateMutability": "nonpayable",
      "type": "function"
    },
    {
      "constant": true,
      "inputs": [],
      "name": "paused",
      "outputs": [
        {
          "name": "",
          "type": "bool"
        }
      ],
      "payable": false,
      "stateMutability": "view",
      "type": "function"
    },
    {
      "constant": true,
      "inputs": [
        {
          "name": "_tokenAddress",
          "type": "address"
        },
        {
          "name": "_id",
          "type": "uint256"
        }
      ],
      "name": "airdropHasExpired",
      "outputs": [
        {
          "name": "",
          "type": "bool"
        }
      ],
      "payable": false,
      "stateMutability": "view",
      "type": "function"
    },
    {
      "constant": true,
      "inputs": [
        {
          "name": "",
          "type": "uint256"
        }
      ],
      "name": "airdrops",
      "outputs": [
        {
          "name": "tokenAddress",
          "type": "address"
        },
        {
          "name": "airdropAddressID",
          "type": "uint256"
        }
      ],
      "payable": false,
      "stateMutability": "view",
      "type": "function"
    },
    {
      "constant": true,
      "inputs": [
        {
          "name": "",
          "type": "address"
        },
        {
          "name": "",
          "type": "uint256"
        }
      ],
      "name": "airdroppedTokens",
      "outputs": [
        {
          "name": "tokenAddress",
          "type": "address"
        },
        {
          "name": "airdropAddressID",
          "type": "uint256"
        },
        {
          "name": "tokenOwner",
          "type": "address"
        },
        {
          "name": "airdropDate",
          "type": "uint256"
        },
        {
          "name": "airdropExpirationDate",
          "type": "uint256"
        },
        {
          "name": "tokenBalance",
          "type": "uint256"
        },
        {
          "name": "totalDropped",
          "type": "uint256"
        },
        {
          "name": "usersAtDate",
          "type": "uint256"
        }
      ],
      "payable": false,
      "stateMutability": "view",
      "type": "function"
    },
    {
      "constant": true,
      "inputs": [
        {
          "name": "",
          "type": "address"
        }
      ],
      "name": "tokenWhitelist",
      "outputs": [
        {
          "name": "",
          "type": "bool"
        }
      ],
      "payable": false,
      "stateMutability": "view",
      "type": "function"
    },
    {
      "constant": true,
      "inputs": [],
      "name": "owner",
      "outputs": [
        {
          "name": "",
          "type": "address"
        }
      ],
      "payable": false,
      "stateMutability": "view",
      "type": "function"
    },
    {
      "constant": false,
      "inputs": [
        {
          "name": "_airdropper",
          "type": "address"
        },
        {
          "name": "_tokenAddress",
          "type": "address"
        }
      ],
      "name": "removeFromBlacklist",
      "outputs": [],
      "payable": false,
      "stateMutability": "nonpayable",
      "type": "function"
    },
    {
      "constant": true,
      "inputs": [
        {
          "name": "_airdropper",
          "type": "address"
        }
      ],
      "name": "isInAirdropperBlacklist",
      "outputs": [
        {
          "name": "",
          "type": "bool"
        }
      ],
      "payable": false,
      "stateMutability": "view",
      "type": "function"
    },
    {
      "constant": true,
      "inputs": [
        {
          "name": "",
          "type": "address"
        }
      ],
      "name": "tokenBlacklist",
      "outputs": [
        {
          "name": "",
          "type": "bool"
        }
      ],
      "payable": false,
      "stateMutability": "view",
      "type": "function"
    },
    {
      "constant": true,
      "inputs": [
        {
          "name": "_tokenAddress",
          "type": "address"
        }
      ],
      "name": "getTokensAvailableToMe",
      "outputs": [
        {
          "name": "",
          "type": "uint256"
        }
      ],
      "payable": false,
      "stateMutability": "view",
      "type": "function"
    },
    {
      "constant": true,
      "inputs": [
        {
          "name": "",
          "type": "address"
        }
      ],
      "name": "airdropperBlacklist",
      "outputs": [
        {
          "name": "",
          "type": "bool"
        }
      ],
      "payable": false,
      "stateMutability": "view",
      "type": "function"
    },
    {
      "constant": false,
      "inputs": [
        {
          "name": "_user",
          "type": "address"
        }
      ],
      "name": "signupUsersManually",
      "outputs": [],
      "payable": false,
      "stateMutability": "nonpayable",
      "type": "function"
    },
    {
      "constant": false,
      "inputs": [
        {
          "name": "_airdropper",
          "type": "address"
        },
        {
          "name": "_tokenAddress",
          "type": "address"
        }
      ],
      "name": "revokeSubmission",
      "outputs": [],
      "payable": false,
      "stateMutability": "nonpayable",
      "type": "function"
    },
    {
      "constant": true,
      "inputs": [],
      "name": "airdropsCount",
      "outputs": [
        {
          "name": "",
          "type": "uint256"
        }
      ],
      "payable": false,
      "stateMutability": "view",
      "type": "function"
    },
    {
      "constant": false,
      "inputs": [],
      "name": "signUpForAirdrops",
      "outputs": [],
      "payable": false,
      "stateMutability": "nonpayable",
      "type": "function"
    },
    {
      "constant": false,
      "inputs": [],
      "name": "quitFromAirdrops",
      "outputs": [],
      "payable": false,
      "stateMutability": "nonpayable",
      "type": "function"
    },
    {
      "constant": false,
      "inputs": [
        {
          "name": "_airdropper",
          "type": "address"
        },
        {
          "name": "_tokenAddress",
          "type": "address"
        }
      ],
      "name": "approveSubmission",
      "outputs": [],
      "payable": false,
      "stateMutability": "nonpayable",
      "type": "function"
    },
    {
      "constant": true,
      "inputs": [],
      "name": "ownersCut",
      "outputs": [
        {
          "name": "",
          "type": "uint256"
        }
      ],
      "payable": false,
      "stateMutability": "view",
      "type": "function"
    },
    {
      "inputs": [],
      "payable": false,
      "stateMutability": "nonpayable",
      "type": "constructor"
    },
    {
      "anonymous": false,
      "inputs": [
        {
          "indexed": false,
          "name": "_tokenAddress",
          "type": "address"
        },
        {
          "indexed": false,
          "name": "_airdropper",
          "type": "address"
        },
        {
          "indexed": false,
          "name": "_totalTokensToDistribute",
          "type": "uint256"
        },
        {
          "indexed": false,
          "name": "creationDate",
          "type": "uint256"
        },
        {
          "indexed": false,
          "name": "_expirationDate",
          "type": "uint256"
        }
      ],
      "name": "E_AirdropSubmitted",
      "type": "event"
    },
    {
      "anonymous": false,
      "inputs": [
        {
          "indexed": false,
          "name": "_userAddress",
          "type": "address"
        },
        {
          "indexed": false,
          "name": "_signupDate",
          "type": "uint256"
        }
      ],
      "name": "E_Signup",
      "type": "event"
    },
    {
      "anonymous": false,
      "inputs": [
        {
          "indexed": false,
          "name": "_tokenAddress",
          "type": "address"
        },
        {
          "indexed": false,
          "name": "_userAddress",
          "type": "address"
        },
        {
          "indexed": false,
          "name": "_tokensWithdrawn",
          "type": "uint256"
        },
        {
          "indexed": false,
          "name": "_withdrawalDate",
          "type": "uint256"
        }
      ],
      "name": "E_TokensWithdrawn",
      "type": "event"
    }
  ],
  "bytecode": "0x6060604052600260015560006005556000600760006101000a81548160ff021916908315150217905550341561003457600080fd5b336000806101000a81548173ffffffffffffffffffffffffffffffffffffffff021916908373ffffffffffffffffffffffffffffffffffffffff160217905550612d43806100836000396000f300606060405260043610610154576000357c0100000000000000000000000000000000000000000000000000000000900463ffffffff1680630f5ee1381461015957806316c38b3c1461018257806317a5a6ee146101a7578063212c3fce1461022757806338cc48311461026057806349df728c146102b55780634b0bddd2146102ee578063552fee9d146103325780635c975abb1461037d5780635e7d6fd0146103aa57806360db5082146104045780636330251d1461046e578063753d75631461054d5780638da5cb5b1461059e5780639d8374b4146105f35780639df16e741461064b5780639fa451021461069c578063c3a83aab146106ed578063c4f3e4d81461073a578063c6705a001461078b578063ce3174ca146107c4578063d0bb1d401461081c578063d5b4040614610845578063d96c09911461085a578063e57e31fa1461086f578063e8fcf27a146108c7575b600080fd5b341561016457600080fd5b61016c6108f0565b6040518082815260200191505060405180910390f35b341561018d57600080fd5b6101a5600480803515159060200190919050506108f6565b005b34156101b257600080fd5b6101de600480803573ffffffffffffffffffffffffffffffffffffffff1690602001909190505061096e565b604051808373ffffffffffffffffffffffffffffffffffffffff1673ffffffffffffffffffffffffffffffffffffffff1681526020018281526020019250505060405180910390f35b341561023257600080fd5b61025e600480803573ffffffffffffffffffffffffffffffffffffffff169060200190919050506109b2565b005b341561026b57600080fd5b610273610cf8565b604051808273ffffffffffffffffffffffffffffffffffffffff1673ffffffffffffffffffffffffffffffffffffffff16815260200191505060405180910390f35b34156102c057600080fd5b6102ec600480803573ffffffffffffffffffffffffffffffffffffffff16906020019091905050610d00565b005b34156102f957600080fd5b610330600480803573ffffffffffffffffffffffffffffffffffffffff169060200190919080351515906020019091905050611189565b005b341561033d57600080fd5b61037b600480803573ffffffffffffffffffffffffffffffffffffffff1690602001909190803590602001909190803590602001909190505061123f565b005b341561038857600080fd5b610390611a91565b604051808215151515815260200191505060405180910390f35b34156103b557600080fd5b6103ea600480803573ffffffffffffffffffffffffffffffffffffffff16906020019091908035906020019091905050611aa4565b604051808215151515815260200191505060405180910390f35b341561040f57600080fd5b6104256004808035906020019091905050611b13565b604051808373ffffffffffffffffffffffffffffffffffffffff1673ffffffffffffffffffffffffffffffffffffffff1681526020018281526020019250505060405180910390f35b341561047957600080fd5b6104ae600480803573ffffffffffffffffffffffffffffffffffffffff16906020019091908035906020019091905050611b66565b604051808973ffffffffffffffffffffffffffffffffffffffff1673ffffffffffffffffffffffffffffffffffffffff1681526020018881526020018773ffffffffffffffffffffffffffffffffffffffff1673ffffffffffffffffffffffffffffffffffffffff1681526020018681526020018581526020018481526020018381526020018281526020019850505050505050505060405180910390f35b341561055857600080fd5b610584600480803573ffffffffffffffffffffffffffffffffffffffff16906020019091905050611c0a565b604051808215151515815260200191505060405180910390f35b34156105a957600080fd5b6105b1611c2a565b604051808273ffffffffffffffffffffffffffffffffffffffff1673ffffffffffffffffffffffffffffffffffffffff16815260200191505060405180910390f35b34156105fe57600080fd5b610649600480803573ffffffffffffffffffffffffffffffffffffffff1690602001909190803573ffffffffffffffffffffffffffffffffffffffff16906020019091905050611c4f565b005b341561065657600080fd5b610682600480803573ffffffffffffffffffffffffffffffffffffffff16906020019091905050611dcc565b604051808215151515815260200191505060405180910390f35b34156106a757600080fd5b6106d3600480803573ffffffffffffffffffffffffffffffffffffffff16906020019091905050611e22565b604051808215151515815260200191505060405180910390f35b34156106f857600080fd5b610724600480803573ffffffffffffffffffffffffffffffffffffffff16906020019091905050611e42565b6040518082815260200191505060405180910390f35b341561074557600080fd5b610771600480803573ffffffffffffffffffffffffffffffffffffffff169060200190919050506120c2565b604051808215151515815260200191505060405180910390f35b341561079657600080fd5b6107c2600480803573ffffffffffffffffffffffffffffffffffffffff169060200190919050506120e2565b005b34156107cf57600080fd5b61081a600480803573ffffffffffffffffffffffffffffffffffffffff1690602001909190803573ffffffffffffffffffffffffffffffffffffffff1690602001909190505061236c565b005b341561082757600080fd5b61082f612595565b6040518082815260200191505060405180910390f35b341561085057600080fd5b6108586125a2565b005b341561086557600080fd5b61086d612798565b005b341561087a57600080fd5b6108c5600480803573ffffffffffffffffffffffffffffffffffffffff1690602001909190803573ffffffffffffffffffffffffffffffffffffffff169060200190919050506128d6565b005b34156108d257600080fd5b6108da612a93565b6040518082815260200191505060405180910390f35b60055481565b6000809054906101000a900473ffffffffffffffffffffffffffffffffffffffff1673ffffffffffffffffffffffffffffffffffffffff163373ffffffffffffffffffffffffffffffffffffffff1614151561095157600080fd5b80600760006101000a81548160ff02191690831515021790555050565b60046020528060005260406000206000915090508060000160009054906101000a900473ffffffffffffffffffffffffffffffffffffffff16908060010154905082565b600080600080600760009054906101000a900460ff161515156109d457600080fd5b600860008673ffffffffffffffffffffffffffffffffffffffff1673ffffffffffffffffffffffffffffffffffffffff16815260200190815260200160002060009054906101000a900460ff161515610a2c57600080fd5b84935060009250600091505b600260008673ffffffffffffffffffffffffffffffffffffffff1673ffffffffffffffffffffffffffffffffffffffff16815260200190815260200160002080549050821015610b7957600260008673ffffffffffffffffffffffffffffffffffffffff1673ffffffffffffffffffffffffffffffffffffffff16815260200190815260200160002082815481101515610ace57fe5b906000526020600020906008020190508060020160009054906101000a900473ffffffffffffffffffffffffffffffffffffffff1673ffffffffffffffffffffffffffffffffffffffff163373ffffffffffffffffffffffffffffffffffffffff16148015610b435750610b428583611aa4565b5b15610b6c57610b5f816005015484612a9990919063ffffffff16565b9250600081600501819055505b8180600101925050610a38565b8373ffffffffffffffffffffffffffffffffffffffff1663a9059cbb33856000604051602001526040518363ffffffff167c0100000000000000000000000000000000000000000000000000000000028152600401808373ffffffffffffffffffffffffffffffffffffffff1673ffffffffffffffffffffffffffffffffffffffff16815260200182815260200192505050602060405180830381600087803b1515610c2457600080fd5b6102c65a03f11515610c3557600080fd5b505050604051805190501515610c4a57600080fd5b7ffe9badacf7eaa58680fd6471ac86b878b10d64f20a9c3f14a91feece1757a93f85338542604051808573ffffffffffffffffffffffffffffffffffffffff1673ffffffffffffffffffffffffffffffffffffffff1681526020018473ffffffffffffffffffffffffffffffffffffffff1673ffffffffffffffffffffffffffffffffffffffff16815260200183815260200182815260200194505050505060405180910390a15050505050565b600030905090565b6000806000806000806000600760009054906101000a900460ff16151515610d2757600080fd5b600860008973ffffffffffffffffffffffffffffffffffffffff1673ffffffffffffffffffffffffffffffffffffffff16815260200190815260200160002060009054906101000a900460ff161515610d7f57600080fd5b600460003373ffffffffffffffffffffffffffffffffffffffff1673ffffffffffffffffffffffffffffffffffffffff1681526020019081526020016000209650600073ffffffffffffffffffffffffffffffffffffffff168760000160009054906101000a900473ffffffffffffffffffffffffffffffffffffffff1673ffffffffffffffffffffffffffffffffffffffff1614151515610e2057600080fd5b60009550600094505b600260008973ffffffffffffffffffffffffffffffffffffffff1673ffffffffffffffffffffffffffffffffffffffff1681526020019081526020016000208054905085101561100457600260008973ffffffffffffffffffffffffffffffffffffffff1673ffffffffffffffffffffffffffffffffffffffff16815260200190815260200160002085815481101515610ebf57fe5b906000526020600020906008020193508660020160008973ffffffffffffffffffffffffffffffffffffffff1673ffffffffffffffffffffffffffffffffffffffff16815260200190815260200160002060008681526020019081526020016000205492508660010154846003015410158015610f40575083600401544211155b15610ff757610f6084600701548560060154612ab790919063ffffffff16565b915081831015610ff657818760020160008a73ffffffffffffffffffffffffffffffffffffffff1673ffffffffffffffffffffffffffffffffffffffff168152602001908152602001600020600087815260200190815260200160002081905550610fd8828560050154612ad290919063ffffffff16565b8460050181905550610ff38287612a9990919063ffffffff16565b95505b5b8480600101955050610e29565b8790508073ffffffffffffffffffffffffffffffffffffffff1663a9059cbb33886000604051602001526040518363ffffffff167c0100000000000000000000000000000000000000000000000000000000028152600401808373ffffffffffffffffffffffffffffffffffffffff1673ffffffffffffffffffffffffffffffffffffffff16815260200182815260200192505050602060405180830381600087803b15156110b257600080fd5b6102c65a03f115156110c357600080fd5b5050506040518051905015156110d857600080fd5b7ffe9badacf7eaa58680fd6471ac86b878b10d64f20a9c3f14a91feece1757a93f88338842604051808573ffffffffffffffffffffffffffffffffffffffff1673ffffffffffffffffffffffffffffffffffffffff1681526020018473ffffffffffffffffffffffffffffffffffffffff1673ffffffffffffffffffffffffffffffffffffffff16815260200183815260200182815260200194505050505060405180910390a15050505050505050565b6000809054906101000a900473ffffffffffffffffffffffffffffffffffffffff1673ffffffffffffffffffffffffffffffffffffffff163373ffffffffffffffffffffffffffffffffffffffff161415156111e457600080fd5b80600660008473ffffffffffffffffffffffffffffffffffffffff1673ffffffffffffffffffffffffffffffffffffffff16815260200190815260200160002060006101000a81548160ff0219169083151502179055505050565b60008061124a612b26565b611252612b56565b600760009054906101000a900460ff1615151561126e57600080fd5b600860008873ffffffffffffffffffffffffffffffffffffffff1673ffffffffffffffffffffffffffffffffffffffff16815260200190815260200160002060009054906101000a900460ff1615156112c657600080fd5b600a60003373ffffffffffffffffffffffffffffffffffffffff1673ffffffffffffffffffffffffffffffffffffffff16815260200190815260200160002060009054906101000a900460ff1615151561131f57600080fd5b869350858473ffffffffffffffffffffffffffffffffffffffff166370a08231336000604051602001526040518263ffffffff167c0100000000000000000000000000000000000000000000000000000000028152600401808273ffffffffffffffffffffffffffffffffffffffff1673ffffffffffffffffffffffffffffffffffffffff168152602001915050602060405180830381600087803b15156113c657600080fd5b6102c65a03f115156113d757600080fd5b50505060405180519050101515156113ee57600080fd5b61148d8473ffffffffffffffffffffffffffffffffffffffff1663313ce5676000604051602001526040518163ffffffff167c0100000000000000000000000000000000000000000000000000000000028152600401602060405180830381600087803b151561145d57600080fd5b6102c65a03f1151561146e57600080fd5b5050506040518051905060ff16600a0a87612aeb90919063ffffffff16565b95506114b760646114a960015489612aeb90919063ffffffff16565b612ab790919063ffffffff16565b92506114cc8387612ad290919063ffffffff16565b955060408051908101604052808873ffffffffffffffffffffffffffffffffffffffff168152602001600260008a73ffffffffffffffffffffffffffffffffffffffff1673ffffffffffffffffffffffffffffffffffffffff168152602001908152602001600020805490508152509150610100604051908101604052808873ffffffffffffffffffffffffffffffffffffffff168152602001600260008a73ffffffffffffffffffffffffffffffffffffffff1673ffffffffffffffffffffffffffffffffffffffff1681526020019081526020016000208054905081526020013373ffffffffffffffffffffffffffffffffffffffff16815260200142815260200186420181526020018781526020018781526020016005548152509050600260008873ffffffffffffffffffffffffffffffffffffffff1673ffffffffffffffffffffffffffffffffffffffff168152602001908152602001600020805480600101828161163d9190612bc8565b9160005260206000209060080201600083909190915060008201518160000160006101000a81548173ffffffffffffffffffffffffffffffffffffffff021916908373ffffffffffffffffffffffffffffffffffffffff1602179055506020820151816001015560408201518160020160006101000a81548173ffffffffffffffffffffffffffffffffffffffff021916908373ffffffffffffffffffffffffffffffffffffffff160217905550606082015181600301556080820151816004015560a0820151816005015560c0820151816006015560e08201518160070155505050600380548060010182816117349190612bfa565b9160005260206000209060020201600084909190915060008201518160000160006101000a81548173ffffffffffffffffffffffffffffffffffffffff021916908373ffffffffffffffffffffffffffffffffffffffff160217905550602082015181600101555050508373ffffffffffffffffffffffffffffffffffffffff166323b872dd3330896000604051602001526040518463ffffffff167c0100000000000000000000000000000000000000000000000000000000028152600401808473ffffffffffffffffffffffffffffffffffffffff1673ffffffffffffffffffffffffffffffffffffffff1681526020018373ffffffffffffffffffffffffffffffffffffffff1673ffffffffffffffffffffffffffffffffffffffff1681526020018281526020019350505050602060405180830381600087803b151561187d57600080fd5b6102c65a03f1151561188e57600080fd5b5050506040518051905015156118a357600080fd5b8373ffffffffffffffffffffffffffffffffffffffff166323b872dd336000809054906101000a900473ffffffffffffffffffffffffffffffffffffffff16866000604051602001526040518463ffffffff167c0100000000000000000000000000000000000000000000000000000000028152600401808473ffffffffffffffffffffffffffffffffffffffff1673ffffffffffffffffffffffffffffffffffffffff1681526020018373ffffffffffffffffffffffffffffffffffffffff1673ffffffffffffffffffffffffffffffffffffffff1681526020018281526020019350505050602060405180830381600087803b15156119a357600080fd5b6102c65a03f115156119b457600080fd5b5050506040518051905015156119c957600080fd5b7fbfd71fe20fdbeee3fd596b50d95fd43398dfbb921312da43589277effb44d6678782604001518360c0015184606001518560800151604051808673ffffffffffffffffffffffffffffffffffffffff1673ffffffffffffffffffffffffffffffffffffffff1681526020018573ffffffffffffffffffffffffffffffffffffffff1673ffffffffffffffffffffffffffffffffffffffff1681526020018481526020018381526020018281526020019550505050505060405180910390a150505050505050565b600760009054906101000a900460ff1681565b600080600260008573ffffffffffffffffffffffffffffffffffffffff1673ffffffffffffffffffffffffffffffffffffffff16815260200190815260200160002083815481101515611af357fe5b906000526020600020906008020190508060040154421191505092915050565b600381815481101515611b2257fe5b90600052602060002090600202016000915090508060000160009054906101000a900473ffffffffffffffffffffffffffffffffffffffff16908060010154905082565b600260205281600052604060002081815481101515611b8157fe5b9060005260206000209060080201600091509150508060000160009054906101000a900473ffffffffffffffffffffffffffffffffffffffff16908060010154908060020160009054906101000a900473ffffffffffffffffffffffffffffffffffffffff16908060030154908060040154908060050154908060060154908060070154905088565b60086020528060005260406000206000915054906101000a900460ff1681565b6000809054906101000a900473ffffffffffffffffffffffffffffffffffffffff1681565b6000809054906101000a900473ffffffffffffffffffffffffffffffffffffffff1673ffffffffffffffffffffffffffffffffffffffff163373ffffffffffffffffffffffffffffffffffffffff16141515611caa57600080fd5b600073ffffffffffffffffffffffffffffffffffffffff168273ffffffffffffffffffffffffffffffffffffffff16141515611d39576000600a60008473ffffffffffffffffffffffffffffffffffffffff1673ffffffffffffffffffffffffffffffffffffffff16815260200190815260200160002060006101000a81548160ff0219169083151502179055505b600073ffffffffffffffffffffffffffffffffffffffff168173ffffffffffffffffffffffffffffffffffffffff16141515611dc8576000600960008373ffffffffffffffffffffffffffffffffffffffff1673ffffffffffffffffffffffffffffffffffffffff16815260200190815260200160002060006101000a81548160ff0219169083151502179055505b5050565b6000600a60008373ffffffffffffffffffffffffffffffffffffffff1673ffffffffffffffffffffffffffffffffffffffff16815260200190815260200160002060009054906101000a900460ff169050919050565b60096020528060005260406000206000915054906101000a900460ff1681565b6000806000806000806000600860008973ffffffffffffffffffffffffffffffffffffffff1673ffffffffffffffffffffffffffffffffffffffff16815260200190815260200160002060009054906101000a900460ff161515611ea557600080fd5b600460003373ffffffffffffffffffffffffffffffffffffffff1673ffffffffffffffffffffffffffffffffffffffff1681526020019081526020016000209550600073ffffffffffffffffffffffffffffffffffffffff168660000160009054906101000a900473ffffffffffffffffffffffffffffffffffffffff1673ffffffffffffffffffffffffffffffffffffffff1614151515611f4657600080fd5b60009450600093505b600260008973ffffffffffffffffffffffffffffffffffffffff1673ffffffffffffffffffffffffffffffffffffffff168152602001908152602001600020805490508410156120b457600260008973ffffffffffffffffffffffffffffffffffffffff1673ffffffffffffffffffffffffffffffffffffffff16815260200190815260200160002084815481101515611fe557fe5b906000526020600020906008020192508560020160008973ffffffffffffffffffffffffffffffffffffffff1673ffffffffffffffffffffffffffffffffffffffff16815260200190815260200160002060008581526020019081526020016000205491508560010154836003015410158015612066575082600401544211155b156120a75761208683600701548460060154612ab790919063ffffffff16565b9050808210156120a6576120a38186612a9990919063ffffffff16565b94505b5b8380600101945050611f4f565b849650505050505050919050565b600a6020528060005260406000206000915054906101000a900460ff1681565b6000809054906101000a900473ffffffffffffffffffffffffffffffffffffffff1673ffffffffffffffffffffffffffffffffffffffff163373ffffffffffffffffffffffffffffffffffffffff1614806121865750600660003373ffffffffffffffffffffffffffffffffffffffff1673ffffffffffffffffffffffffffffffffffffffff16815260200190815260200160002060009054906101000a900460ff165b151561219157600080fd5b600073ffffffffffffffffffffffffffffffffffffffff16600460008373ffffffffffffffffffffffffffffffffffffffff1673ffffffffffffffffffffffffffffffffffffffff16815260200190815260200160002060000160009054906101000a900473ffffffffffffffffffffffffffffffffffffffff1673ffffffffffffffffffffffffffffffffffffffff1614151561222e57600080fd5b60408051908101604052808273ffffffffffffffffffffffffffffffffffffffff16815260200142815250600460008373ffffffffffffffffffffffffffffffffffffffff1673ffffffffffffffffffffffffffffffffffffffff16815260200190815260200160002060008201518160000160006101000a81548173ffffffffffffffffffffffffffffffffffffffff021916908373ffffffffffffffffffffffffffffffffffffffff160217905550602082015181600101559050506005600081548092919060010191905055507f53047ca9b22e6a3462502d4569e7650efca4d42747f536a942b778f9d56ddc983342604051808373ffffffffffffffffffffffffffffffffffffffff1673ffffffffffffffffffffffffffffffffffffffff1681526020018281526020019250505060405180910390a150565b6000809054906101000a900473ffffffffffffffffffffffffffffffffffffffff1673ffffffffffffffffffffffffffffffffffffffff163373ffffffffffffffffffffffffffffffffffffffff1614806124105750600660003373ffffffffffffffffffffffffffffffffffffffff1673ffffffffffffffffffffffffffffffffffffffff16815260200190815260200160002060009054906101000a900460ff165b151561241b57600080fd5b600073ffffffffffffffffffffffffffffffffffffffff168173ffffffffffffffffffffffffffffffffffffffff16141515612502576000600860008373ffffffffffffffffffffffffffffffffffffffff1673ffffffffffffffffffffffffffffffffffffffff16815260200190815260200160002060006101000a81548160ff0219169083151502179055506001600960008373ffffffffffffffffffffffffffffffffffffffff1673ffffffffffffffffffffffffffffffffffffffff16815260200190815260200160002060006101000a81548160ff0219169083151502179055505b600073ffffffffffffffffffffffffffffffffffffffff168273ffffffffffffffffffffffffffffffffffffffff16141515612591576001600a60008473ffffffffffffffffffffffffffffffffffffffff1673ffffffffffffffffffffffffffffffffffffffff16815260200190815260200160002060006101000a81548160ff0219169083151502179055505b5050565b6000600380549050905090565b600760009054906101000a900460ff161515156125be57600080fd5b600073ffffffffffffffffffffffffffffffffffffffff16600460003373ffffffffffffffffffffffffffffffffffffffff1673ffffffffffffffffffffffffffffffffffffffff16815260200190815260200160002060000160009054906101000a900473ffffffffffffffffffffffffffffffffffffffff1673ffffffffffffffffffffffffffffffffffffffff1614151561265b57600080fd5b60408051908101604052803373ffffffffffffffffffffffffffffffffffffffff16815260200142815250600460003373ffffffffffffffffffffffffffffffffffffffff1673ffffffffffffffffffffffffffffffffffffffff16815260200190815260200160002060008201518160000160006101000a81548173ffffffffffffffffffffffffffffffffffffffff021916908373ffffffffffffffffffffffffffffffffffffffff160217905550602082015181600101559050506005600081548092919060010191905055507f53047ca9b22e6a3462502d4569e7650efca4d42747f536a942b778f9d56ddc983342604051808373ffffffffffffffffffffffffffffffffffffffff1673ffffffffffffffffffffffffffffffffffffffff1681526020018281526020019250505060405180910390a1565b600760009054906101000a900460ff161515156127b457600080fd5b3373ffffffffffffffffffffffffffffffffffffffff16600460003373ffffffffffffffffffffffffffffffffffffffff1673ffffffffffffffffffffffffffffffffffffffff16815260200190815260200160002060000160009054906101000a900473ffffffffffffffffffffffffffffffffffffffff1673ffffffffffffffffffffffffffffffffffffffff1614151561285057600080fd5b600460003373ffffffffffffffffffffffffffffffffffffffff1673ffffffffffffffffffffffffffffffffffffffff168152602001908152602001600020600080820160006101000a81549073ffffffffffffffffffffffffffffffffffffffff02191690556001820160009055505060056000815480929190600190039190505550565b6000809054906101000a900473ffffffffffffffffffffffffffffffffffffffff1673ffffffffffffffffffffffffffffffffffffffff163373ffffffffffffffffffffffffffffffffffffffff16148061297a5750600660003373ffffffffffffffffffffffffffffffffffffffff1673ffffffffffffffffffffffffffffffffffffffff16815260200190815260200160002060009054906101000a900460ff165b151561298557600080fd5b600a60008373ffffffffffffffffffffffffffffffffffffffff1673ffffffffffffffffffffffffffffffffffffffff16815260200190815260200160002060009054906101000a900460ff161515156129de57600080fd5b600960008273ffffffffffffffffffffffffffffffffffffffff1673ffffffffffffffffffffffffffffffffffffffff16815260200190815260200160002060009054906101000a900460ff16151515612a3757600080fd5b6001600860008373ffffffffffffffffffffffffffffffffffffffff1673ffffffffffffffffffffffffffffffffffffffff16815260200190815260200160002060006101000a81548160ff0219169083151502179055505050565b60015481565b6000808284019050838110151515612aad57fe5b8091505092915050565b6000808284811515612ac557fe5b0490508091505092915050565b6000828211151515612ae057fe5b818303905092915050565b6000806000841415612b005760009150612b1f565b8284029050828482811515612b1157fe5b04141515612b1b57fe5b8091505b5092915050565b6040805190810160405280600073ffffffffffffffffffffffffffffffffffffffff168152602001600081525090565b61010060405190810160405280600073ffffffffffffffffffffffffffffffffffffffff16815260200160008152602001600073ffffffffffffffffffffffffffffffffffffffff16815260200160008152602001600081526020016000815260200160008152602001600081525090565b815481835581811511612bf557600802816008028360005260206000209182019101612bf49190612c2c565b5b505050565b815481835581811511612c2757600202816002028360005260206000209182019101612c269190612cc9565b5b505050565b612cc691905b80821115612cc257600080820160006101000a81549073ffffffffffffffffffffffffffffffffffffffff021916905560018201600090556002820160006101000a81549073ffffffffffffffffffffffffffffffffffffffff02191690556003820160009055600482016000905560058201600090556006820160009055600782016000905550600801612c32565b5090565b90565b612d1491905b80821115612d1057600080820160006101000a81549073ffffffffffffffffffffffffffffffffffffffff0219169055600182016000905550600201612ccf565b5090565b905600a165627a7a723058205ec1b55ba1902cbb256f0a21a2917dd47d87e1a81b6d324ea347eb8d2fa466390029",
  "source": "pragma solidity 0.4.18;\n\nimport './ERC20Basic.sol';\n\n/// @author Pablo Ruiz <me@pabloruiz.co>\n/// @Title Airdrop Central - To submit your token follow the instructions at:\n/// https://github.com/pabloruiz55/AirdropCentral\n\n//////////////////\n\n//\n// Permissions\n//                               Admin      Airdropper       User\n// approve/ revoke submissions     x\n// pause / unpause                 x\n// signupUsersManually             x\n// airdropTokens                                x\n// returnTokensToAirdropper                     x\n// signUpForAirdrops                                          x\n// quitFromAirdrops                                           x\n// getTokensAvailableToMe                                     x\n// withdrawTokens                                             x\n\n////////\n\ncontract AirdropCentral {\n    using SafeMath for uint256;\n\n    // The owner / admin of the Airdrop Central\n    // In charge of accepting airdrop submissions\n    address public owner;\n\n    // How many tokens the owner keeps of each airdrop as transaction fee\n    uint public ownersCut = 2; // 2% commision in tokens\n\n    // Id of each airdrop (token address + id #)\n    struct TokenAirdropID {\n        address tokenAddress;\n        uint airdropAddressID; // The id of the airdrop within a token address\n    }\n\n    struct TokenAirdrop {\n        address tokenAddress;\n        uint airdropAddressID; // The id of the airdrop within a token address\n        address tokenOwner;\n        uint airdropDate; // The airdrop creation date\n        uint airdropExpirationDate; // When airdrop expires\n        uint tokenBalance; // Current balance\n        uint totalDropped; // Total to distribute\n        uint usersAtDate; // How many users were signed at airdrop date\n    }\n\n    struct User {\n        address userAddress;\n        uint signupDate; // Determines which airdrops the user has access to\n        // User -> Airdrop id# -> balance\n        mapping (address => mapping (uint => uint)) withdrawnBalances;\n    }\n\n    // Maps the tokens available to airdrop central contract. Keyed by token address\n    mapping (address => TokenAirdrop[]) public airdroppedTokens;\n    TokenAirdropID[] public airdrops;\n\n    // List of users that signed up\n    mapping (address => User) public signups;\n    uint public userSignupCount = 0;\n\n    // Admins with permission to accept submissions\n    mapping (address => bool) admins;\n\n    // Whether or not the contract is paused (in case of a problem is detected)\n    bool public paused = false;\n\n    // List of approved/rejected token/sender addresses\n    mapping (address => bool) public tokenWhitelist;\n    mapping (address => bool) public tokenBlacklist;\n    mapping (address => bool) public airdropperBlacklist;\n\n    //\n    // Modifiers\n    //\n\n    modifier onlyOwner {\n        require(msg.sender == owner);\n        _;\n    }\n\n    modifier onlyAdmin {\n        require(msg.sender == owner || admins[msg.sender]);\n        _;\n    }\n\n    modifier ifNotPaused {\n        require(!paused);\n        _;\n    }\n\n    //\n    // Events\n    //\n\n    event E_AirdropSubmitted(address _tokenAddress, address _airdropper,uint _totalTokensToDistribute,uint creationDate, uint _expirationDate);\n    event E_Signup(address _userAddress,uint _signupDate);\n    event E_TokensWithdrawn(address _tokenAddress,address _userAddress, uint _tokensWithdrawn, uint _withdrawalDate);\n\n    function AirdropCentral() public {\n        owner = msg.sender;\n    }\n\n    /////////////////////\n    // Owner / Admin functions\n    /////////////////////\n\n    /**\n     * @dev pause or unpause the contract in case a problem is detected\n     */\n    function setPaused(bool _isPaused) public onlyOwner{\n        paused = _isPaused;\n    }\n\n    /**\n     * @dev allows owner to grant/revoke admin privileges to other accounts\n     * @param _admin is the account to be granted/revoked admin privileges\n     * @param isAdmin is whether or not to grant or revoke privileges.\n     */\n    function setAdmin(address _admin, bool isAdmin) public onlyOwner{\n        admins[_admin] = isAdmin;\n    }\n\n    /**\n     * @dev removes a token and/or account from the blacklist to allow\n     * them to submit a token again.\n     * @param _airdropper is the account to remove from blacklist\n     * @param _tokenAddress is the token address to remove from blacklist\n     */\n    function removeFromBlacklist(address _airdropper, address _tokenAddress) public onlyOwner {\n        if(_airdropper != address(0))\n            airdropperBlacklist[_airdropper] = false;\n\n        if(_tokenAddress != address(0))\n            tokenBlacklist[_tokenAddress] = false;\n    }\n\n    /**\n     * @dev approves a given token and account address to make it available for airdrop\n     * This is necessary to avoid malicious contracts to be added.\n     * @param _airdropper is the account to add to the whitelist\n     * @param _tokenAddress is the token address to add to the whitelist\n     */\n    function approveSubmission(address _airdropper, address _tokenAddress) public onlyAdmin {\n        require(!airdropperBlacklist[_airdropper]);\n        require(!tokenBlacklist[_tokenAddress]);\n\n        tokenWhitelist[_tokenAddress] = true;\n    }\n\n    /**\n     * @dev removes token and airdropper from whitelist.\n     * Also adds them to a blacklist to prevent further submissions of any\n     * To be used in case of an emgency where the owner failed to detect\n     * a problem with the address submitted.\n     * @param _airdropper is the account to add to the blacklist and remove from whitelist\n     * @param _tokenAddress is the token address to add to the blacklist and remove from whitelist\n     */\n    function revokeSubmission(address _airdropper, address _tokenAddress) public onlyAdmin {\n        if(_tokenAddress != address(0)){\n            tokenWhitelist[_tokenAddress] = false;\n            tokenBlacklist[_tokenAddress] = true;\n        }\n\n        if(_airdropper != address(0)){\n            airdropperBlacklist[_airdropper] = true;\n        }\n\n    }\n\n    function isInAirdropperBlacklist(address _airdropper) view public returns(bool){\n      return airdropperBlacklist[_airdropper];\n    }\n\n    /**\n     * @dev allows admins to add users to the list manually\n     * Use to add people who explicitely asked to be added...\n     */\n    function signupUsersManually(address _user) public onlyAdmin {\n        require(signups[_user].userAddress == address(0));\n        signups[_user] = User(_user,now);\n        userSignupCount++;\n\n        E_Signup(msg.sender,now);\n    }\n\n\n    /////////////////////\n    // Airdropper functions\n    /////////////////////\n\n    /**\n     * @dev Transfers tokens to contract and sets the Token Airdrop\n     * @notice Before calling this function, you must have given the Airdrop Central\n     * an allowance of the tokens to distribute.\n     * Call approve([this contract's address],_totalTokensToDistribute); on the ERC20 token cotnract first\n     * @param _tokenAddress is the address of the token\n     * @param _totalTokensToDistribute is the tokens that will be evenly distributed among all current users\n     * Enter the number of tokens (the function multiplies by the token decimals)\n     * @param _expirationTime is in how many seconds will the airdrop expire from now\n     * user should first know how many users are signed to know final approximate distribution\n     */\n    function airdropTokens(address _tokenAddress, uint _totalTokensToDistribute, uint _expirationTime) public ifNotPaused {\n        require(tokenWhitelist[_tokenAddress]);\n        require(!airdropperBlacklist[msg.sender]);\n\n        ERC20Basic token = ERC20Basic(_tokenAddress);\n        require(token.balanceOf(msg.sender) >= _totalTokensToDistribute);\n\n        //Multiply number entered by token decimals.\n        _totalTokensToDistribute = _totalTokensToDistribute.mul(10 ** uint256(token.decimals()));\n\n        // Calculate owner's tokens and tokens to airdrop\n        uint tokensForOwner = _totalTokensToDistribute.mul(ownersCut).div(100);\n        _totalTokensToDistribute = _totalTokensToDistribute.sub(tokensForOwner);\n\n        // Store the airdrop unique id in array (token address + id)\n        TokenAirdropID memory taid = TokenAirdropID(_tokenAddress,airdroppedTokens[_tokenAddress].length);\n        TokenAirdrop memory ta = TokenAirdrop(_tokenAddress,airdroppedTokens[_tokenAddress].length,msg.sender,now,now+_expirationTime,_totalTokensToDistribute,_totalTokensToDistribute,userSignupCount);\n        airdroppedTokens[_tokenAddress].push(ta);\n        airdrops.push(taid);\n\n        // Transfer the tokens\n        require(token.transferFrom(msg.sender,this,_totalTokensToDistribute));\n        require(token.transferFrom(msg.sender,owner,tokensForOwner));\n\n        E_AirdropSubmitted(_tokenAddress,ta.tokenOwner,ta.totalDropped,ta.airdropDate,ta.airdropExpirationDate);\n\n    }\n\n    /**\n     * @dev returns unclaimed tokens to the airdropper after the airdrop expires\n     * @param _tokenAddress is the address of the token\n     */\n    function returnTokensToAirdropper(address _tokenAddress) public ifNotPaused {\n        require(tokenWhitelist[_tokenAddress]); // Token must be whitelisted first\n\n        // Get the token\n        ERC20Basic token = ERC20Basic(_tokenAddress);\n\n        uint tokensToReturn = 0;\n\n        for (uint i =0; i<airdroppedTokens[_tokenAddress].length; i++){\n            TokenAirdrop storage ta = airdroppedTokens[_tokenAddress][i];\n            if(msg.sender == ta.tokenOwner &&\n                airdropHasExpired(_tokenAddress,i)){\n\n                tokensToReturn = tokensToReturn.add(ta.tokenBalance);\n                ta.tokenBalance = 0;\n            }\n        }\n        require(token.transfer(msg.sender,tokensToReturn));\n        E_TokensWithdrawn(_tokenAddress,msg.sender,tokensToReturn,now);\n\n    }\n\n    /////////////////////\n    // User functions\n    /////////////////////\n\n    /**\n     * @dev user can signup to the Airdrop Central to receive token airdrops\n     * Airdrops made before the user registration won't be available to them.\n     */\n    function signUpForAirdrops() public ifNotPaused{\n        require(signups[msg.sender].userAddress == address(0));\n        signups[msg.sender] = User(msg.sender,now);\n        userSignupCount++;\n\n        E_Signup(msg.sender,now);\n    }\n\n    /**\n     * @dev removes user from airdrop list.\n     * Beware that token distribution for existing airdrops won't change.\n     * For example: if 100 tokens were to be distributed to 10 people (10 each).\n     * if one quitted from the list, the other 9 will still get 10 each.\n     * @notice WARNING: Quiting from the airdrop central will make you lose\n     * tokens not yet withdrawn. Make sure to withdraw all pending tokens before\n     * removing yourself from this list. Signing up later will not give you the older tokens back\n     */\n    function quitFromAirdrops() public ifNotPaused{\n        require(signups[msg.sender].userAddress == msg.sender);\n        delete signups[msg.sender];\n        userSignupCount--;\n    }\n\n    /**\n     * @dev calculates the amount of tokens the user will be able to withdraw\n     * Given a token address, the function checks all airdrops with the same address\n     * @param _tokenAddress is the token the user wants to check his balance for\n     * @return totalTokensAvailable is the tokens calculated\n     */\n    function getTokensAvailableToMe(address _tokenAddress) view public returns (uint){\n        require(tokenWhitelist[_tokenAddress]); // Token must be whitelisted first\n\n        // Get User instance, given the sender account\n        User storage user = signups[msg.sender];\n        require(user.userAddress != address(0));\n\n        uint totalTokensAvailable= 0;\n        for (uint i =0; i<airdroppedTokens[_tokenAddress].length; i++){\n            TokenAirdrop storage ta = airdroppedTokens[_tokenAddress][i];\n\n            uint _withdrawnBalance = user.withdrawnBalances[_tokenAddress][i];\n\n            //Check that user signed up before the airdrop was done. If so, he is entitled to the tokens\n            //And the airdrop must not have expired\n            if(ta.airdropDate >= user.signupDate &&\n                now <= ta.airdropExpirationDate){\n\n                // The user will get a portion of the total tokens airdroped,\n                // divided by the users at the moment the airdrop was created\n                uint tokensAvailable = ta.totalDropped.div(ta.usersAtDate);\n\n                // if the user has not alreay withdrawn the tokens, count them\n                if(_withdrawnBalance < tokensAvailable){\n                    totalTokensAvailable = totalTokensAvailable.add(tokensAvailable);\n\n                }\n            }\n        }\n        return totalTokensAvailable;\n    }\n\n    /**\n     * @dev calculates and withdraws the amount of tokens the user has been awarded by airdrops\n     * Given a token address, the function checks all airdrops with the same\n     * address and withdraws the corresponding tokens for the user.\n     * @param _tokenAddress is the token the user wants to check his balance for\n     */\n    function withdrawTokens(address _tokenAddress) ifNotPaused public {\n        require(tokenWhitelist[_tokenAddress]); // Token must be whitelisted first\n\n        // Get User instance, given the sender account\n        User storage user = signups[msg.sender];\n        require(user.userAddress != address(0));\n\n        uint totalTokensToTransfer = 0;\n        // For each airdrop made for this token (token owner may have done several airdrops at any given point)\n        for (uint i =0; i<airdroppedTokens[_tokenAddress].length; i++){\n            TokenAirdrop storage ta = airdroppedTokens[_tokenAddress][i];\n\n            uint _withdrawnBalance = user.withdrawnBalances[_tokenAddress][i];\n\n            //Check that user signed up before the airdrop was done. If so, he is entitled to the tokens\n            //And the airdrop must not have expired\n            if(ta.airdropDate >= user.signupDate &&\n                now <= ta.airdropExpirationDate){\n\n                // The user will get a portion of the total tokens airdroped,\n                // divided by the users at the moment the airdrop was created\n                uint tokensToTransfer = ta.totalDropped.div(ta.usersAtDate);\n\n                // if the user has not alreay withdrawn the tokens\n                if(_withdrawnBalance < tokensToTransfer){\n                    // Register the tokens withdrawn by the user and total tokens withdrawn\n                    user.withdrawnBalances[_tokenAddress][i] = tokensToTransfer;\n                    ta.tokenBalance = ta.tokenBalance.sub(tokensToTransfer);\n                    totalTokensToTransfer = totalTokensToTransfer.add(tokensToTransfer);\n\n                }\n            }\n        }\n        // Get the token\n        ERC20Basic token = ERC20Basic(_tokenAddress);\n        // Transfer tokens from all airdrops that correspond to this user\n        require(token.transfer(msg.sender,totalTokensToTransfer));\n\n        E_TokensWithdrawn(_tokenAddress,msg.sender,totalTokensToTransfer,now);\n    }\n\n    function airdropsCount() public view returns (uint){\n        return airdrops.length;\n    }\n\n    function getAddress() public view returns (address){\n      return address(this);\n    }\n\n    function airdropHasExpired(address _tokenAddress, uint _id) public view returns (bool){\n        TokenAirdrop storage ta = airdroppedTokens[_tokenAddress][_id];\n        return (now > ta.airdropExpirationDate);\n    }\n}\n",
  "sourcePath": "/Users/pabloruiz55/DocumentsBackup/dapps/AirdropCentral/contracts/AirdropCentral.sol",
  "compiler": {
    "name": "solc",
    "version": "0.4.18+commit.9cf6e910.Emscripten.clang"
  },
  "schemaVersion": "1.0.1",
  "updatedAt": "2017-12-07T14:11:07.514Z"
}